{
  "contractName": "BlockToken",
  "abi": [
    {
      "inputs": [],
      "stateMutability": "nonpayable",
      "type": "constructor"
    },
    {
      "anonymous": false,
      "inputs": [
        {
          "indexed": true,
          "internalType": "address",
          "name": "owner",
          "type": "address"
        },
        {
          "indexed": true,
          "internalType": "address",
          "name": "spender",
          "type": "address"
        },
        {
          "indexed": false,
          "internalType": "uint256",
          "name": "value",
          "type": "uint256"
        }
      ],
      "name": "Approval",
      "type": "event"
    },
    {
      "anonymous": false,
      "inputs": [
        {
          "indexed": true,
          "internalType": "address",
          "name": "preOwner",
          "type": "address"
        },
        {
          "indexed": true,
          "internalType": "address",
          "name": "nextOwner",
          "type": "address"
        }
      ],
      "name": "OwnershipTransferred",
      "type": "event"
    },
    {
      "anonymous": false,
      "inputs": [
        {
          "indexed": true,
          "internalType": "address",
          "name": "from",
          "type": "address"
        },
        {
          "indexed": true,
          "internalType": "address",
          "name": "to",
          "type": "address"
        },
        {
          "indexed": false,
          "internalType": "uint256",
          "name": "value",
          "type": "uint256"
        }
      ],
      "name": "Transfer",
      "type": "event"
    },
    {
      "inputs": [],
      "name": "_decimals",
      "outputs": [
        {
          "internalType": "uint8",
          "name": "",
          "type": "uint8"
        }
      ],
      "stateMutability": "view",
      "type": "function",
      "constant": true
    },
    {
      "inputs": [],
      "name": "owner",
      "outputs": [
        {
          "internalType": "address",
          "name": "",
          "type": "address"
        }
      ],
      "stateMutability": "view",
      "type": "function",
      "constant": true
    },
    {
      "inputs": [
        {
          "internalType": "address",
          "name": "newOwner",
          "type": "address"
        }
      ],
      "name": "transferOwnership",
      "outputs": [],
      "stateMutability": "nonpayable",
      "type": "function"
    },
    {
      "inputs": [],
      "name": "name",
      "outputs": [
        {
          "internalType": "string",
          "name": "",
          "type": "string"
        }
      ],
      "stateMutability": "view",
      "type": "function",
      "constant": true
    },
    {
      "inputs": [],
      "name": "symbol",
      "outputs": [
        {
          "internalType": "string",
          "name": "",
          "type": "string"
        }
      ],
      "stateMutability": "view",
      "type": "function",
      "constant": true
    },
    {
      "inputs": [],
      "name": "decimals",
      "outputs": [
        {
          "internalType": "uint8",
          "name": "",
          "type": "uint8"
        }
      ],
      "stateMutability": "view",
      "type": "function",
      "constant": true
    },
    {
      "inputs": [],
      "name": "totalSupply",
      "outputs": [
        {
          "internalType": "uint256",
          "name": "",
          "type": "uint256"
        }
      ],
      "stateMutability": "view",
      "type": "function",
      "constant": true
    },
    {
      "inputs": [
        {
          "internalType": "address",
          "name": "account",
          "type": "address"
        }
      ],
      "name": "balanceOf",
      "outputs": [
        {
          "internalType": "uint256",
          "name": "",
          "type": "uint256"
        }
      ],
      "stateMutability": "view",
      "type": "function",
      "constant": true
    },
    {
      "inputs": [
        {
          "internalType": "address",
          "name": "to",
          "type": "address"
        },
        {
          "internalType": "uint256",
          "name": "amount",
          "type": "uint256"
        }
      ],
      "name": "transfer",
      "outputs": [
        {
          "internalType": "bool",
          "name": "",
          "type": "bool"
        }
      ],
      "stateMutability": "nonpayable",
      "type": "function"
    },
    {
      "inputs": [
        {
          "internalType": "address",
          "name": "owner",
          "type": "address"
        },
        {
          "internalType": "address",
          "name": "spender",
          "type": "address"
        }
      ],
      "name": "allowance",
      "outputs": [
        {
          "internalType": "uint256",
          "name": "",
          "type": "uint256"
        }
      ],
      "stateMutability": "view",
      "type": "function",
      "constant": true
    },
    {
      "inputs": [
        {
          "internalType": "address",
          "name": "spender",
          "type": "address"
        },
        {
          "internalType": "uint256",
          "name": "amount",
          "type": "uint256"
        }
      ],
      "name": "approve",
      "outputs": [
        {
          "internalType": "bool",
          "name": "",
          "type": "bool"
        }
      ],
      "stateMutability": "nonpayable",
      "type": "function"
    },
    {
      "inputs": [
        {
          "internalType": "address",
          "name": "from",
          "type": "address"
        },
        {
          "internalType": "address",
          "name": "to",
          "type": "address"
        },
        {
          "internalType": "uint256",
          "name": "amount",
          "type": "uint256"
        }
      ],
      "name": "transferFrom",
      "outputs": [
        {
          "internalType": "bool",
          "name": "",
          "type": "bool"
        }
      ],
      "stateMutability": "nonpayable",
      "type": "function"
    },
    {
      "inputs": [
        {
          "internalType": "address",
          "name": "spender",
          "type": "address"
        },
        {
          "internalType": "uint256",
          "name": "addedValue",
          "type": "uint256"
        }
      ],
      "name": "increaseAllowance",
      "outputs": [
        {
          "internalType": "bool",
          "name": "",
          "type": "bool"
        }
      ],
      "stateMutability": "nonpayable",
      "type": "function"
    },
    {
      "inputs": [
        {
          "internalType": "address",
          "name": "spender",
          "type": "address"
        },
        {
          "internalType": "uint256",
          "name": "subtractedValue",
          "type": "uint256"
        }
      ],
      "name": "decreaseAllowance",
      "outputs": [
        {
          "internalType": "bool",
          "name": "",
          "type": "bool"
        }
      ],
      "stateMutability": "nonpayable",
      "type": "function"
    }
  ],
  "bytecode": "0x60806040523480156200001157600080fd5b50336000806101000a81548173ffffffffffffffffffffffffffffffffffffffff021916908373ffffffffffffffffffffffffffffffffffffffff1602179055506040518060400160405280600b81526020017f426c6f636b20546f6b656e000000000000000000000000000000000000000000815250600490805190602001906200009f92919062000189565b506040518060400160405280600581526020017f426c6f636b00000000000000000000000000000000000000000000000000000081525060059080519060200190620000ed92919062000189565b506012600660006101000a81548160ff021916908360ff160217905550600660009054906101000a900460ff16600a1860ff166305f5e10062000131919062000278565b63ffffffff16600381905550600354600160003373ffffffffffffffffffffffffffffffffffffffff1673ffffffffffffffffffffffffffffffffffffffff1681526020019081526020016000208190555062000321565b8280546200019790620002ec565b90600052602060002090601f016020900481019282620001bb576000855562000207565b82601f10620001d657805160ff191683800117855562000207565b8280016001018555821562000207579182015b8281111562000206578251825591602001919060010190620001e9565b5b5090506200021691906200021a565b5090565b5b80821115620002355760008160009055506001016200021b565b5090565b600063ffffffff82169050919050565b7f4e487b7100000000000000000000000000000000000000000000000000000000600052601160045260246000fd5b6000620002858262000239565b9150620002928362000239565b92508163ffffffff0483118215151615620002b257620002b162000249565b5b828202905092915050565b7f4e487b7100000000000000000000000000000000000000000000000000000000600052602260045260246000fd5b600060028204905060018216806200030557607f821691505b6020821081036200031b576200031a620002bd565b5b50919050565b61169480620003316000396000f3fe608060405234801561001057600080fd5b50600436106100ea5760003560e01c806370a082311161008c578063a457c2d711610066578063a457c2d714610263578063a9059cbb14610293578063dd62ed3e146102c3578063f2fde38b146102f3576100ea565b806370a08231146101f75780638da5cb5b1461022757806395d89b4114610245576100ea565b806323b872dd116100c857806323b872dd1461015b578063313ce5671461018b57806332424aa3146101a957806339509351146101c7576100ea565b806306fdde03146100ef578063095ea7b31461010d57806318160ddd1461013d575b600080fd5b6100f761030f565b6040516101049190610eb9565b60405180910390f35b61012760048036038101906101229190610f74565b6103a1565b6040516101349190610fcf565b60405180910390f35b6101456103c4565b6040516101529190610ff9565b60405180910390f35b61017560048036038101906101709190611014565b6103ce565b6040516101829190610fcf565b60405180910390f35b6101936103fd565b6040516101a09190611083565b60405180910390f35b6101b1610406565b6040516101be9190611083565b60405180910390f35b6101e160048036038101906101dc9190610f74565b610419565b6040516101ee9190610fcf565b60405180910390f35b610211600480360381019061020c919061109e565b6104c3565b60405161021e9190610ff9565b60405180910390f35b61022f61050c565b60405161023c91906110da565b60405180910390f35b61024d610535565b60405161025a9190610eb9565b60405180910390f35b61027d60048036038101906102789190610f74565b6105c7565b60405161028a9190610fcf565b60405180910390f35b6102ad60048036038101906102a89190610f74565b6106b1565b6040516102ba9190610fcf565b60405180910390f35b6102dd60048036038101906102d891906110f5565b6106d4565b6040516102ea9190610ff9565b60405180910390f35b61030d6004803603810190610308919061109e565b61075b565b005b60606004805461031e90611164565b80601f016020809104026020016040519081016040528092919081815260200182805461034a90611164565b80156103975780601f1061036c57610100808354040283529160200191610397565b820191906000526020600020905b81548152906001019060200180831161037a57829003601f168201915b5050505050905090565b6000806103ac610937565b90506103b981858561093f565b600191505092915050565b6000600354905090565b6000806103d9610937565b90506103e6858285610b08565b6103f1858585610b94565b60019150509392505050565b60006012905090565b600660009054906101000a900460ff1681565b600080610424610937565b90506104b8818585600260008673ffffffffffffffffffffffffffffffffffffffff1673ffffffffffffffffffffffffffffffffffffffff16815260200190815260200160002060008973ffffffffffffffffffffffffffffffffffffffff1673ffffffffffffffffffffffffffffffffffffffff168152602001908152602001600020546104b391906111c4565b61093f565b600191505092915050565b6000600160008373ffffffffffffffffffffffffffffffffffffffff1673ffffffffffffffffffffffffffffffffffffffff168152602001908152602001600020549050919050565b60008060009054906101000a900473ffffffffffffffffffffffffffffffffffffffff16905090565b60606005805461054490611164565b80601f016020809104026020016040519081016040528092919081815260200182805461057090611164565b80156105bd5780601f10610592576101008083540402835291602001916105bd565b820191906000526020600020905b8154815290600101906020018083116105a057829003601f168201915b5050505050905090565b6000806105d2610937565b90506000600260008373ffffffffffffffffffffffffffffffffffffffff1673ffffffffffffffffffffffffffffffffffffffff16815260200190815260200160002060008673ffffffffffffffffffffffffffffffffffffffff1673ffffffffffffffffffffffffffffffffffffffff16815260200190815260200160002054905083811015610698576040517f08c379a000000000000000000000000000000000000000000000000000000000815260040161068f9061128c565b60405180910390fd5b6106a5828686840361093f565b60019250505092915050565b6000806106bc610937565b90506106c9818585610b94565b600191505092915050565b6000600260008473ffffffffffffffffffffffffffffffffffffffff1673ffffffffffffffffffffffffffffffffffffffff16815260200190815260200160002060008373ffffffffffffffffffffffffffffffffffffffff1673ffffffffffffffffffffffffffffffffffffffff16815260200190815260200160002054905092915050565b60008054906101000a900473ffffffffffffffffffffffffffffffffffffffff1673ffffffffffffffffffffffffffffffffffffffff163373ffffffffffffffffffffffffffffffffffffffff16146107e9576040517f08c379a00000000000000000000000000000000000000000000000000000000081526004016107e0906112f8565b60405180910390fd5b60008054906101000a900473ffffffffffffffffffffffffffffffffffffffff1673ffffffffffffffffffffffffffffffffffffffff168173ffffffffffffffffffffffffffffffffffffffff160361084157600080fd5b600073ffffffffffffffffffffffffffffffffffffffff168173ffffffffffffffffffffffffffffffffffffffff160361087a57600080fd5b806000806101000a81548173ffffffffffffffffffffffffffffffffffffffff021916908373ffffffffffffffffffffffffffffffffffffffff1602179055508073ffffffffffffffffffffffffffffffffffffffff1660008054906101000a900473ffffffffffffffffffffffffffffffffffffffff1673ffffffffffffffffffffffffffffffffffffffff167f8be0079c531659141344cd1fd0a4f28419497f9722a3daafe3b4186f6b6457e060405160405180910390a350565b600033905090565b600073ffffffffffffffffffffffffffffffffffffffff168373ffffffffffffffffffffffffffffffffffffffff16036109ae576040517f08c379a00000000000000000000000000000000000000000000000000000000081526004016109a59061138a565b60405180910390fd5b600073ffffffffffffffffffffffffffffffffffffffff168273ffffffffffffffffffffffffffffffffffffffff1603610a1d576040517f08c379a0000000000000000000000000000000000000000000000000000000008152600401610a149061141c565b60405180910390fd5b80600260008573ffffffffffffffffffffffffffffffffffffffff1673ffffffffffffffffffffffffffffffffffffffff16815260200190815260200160002060008473ffffffffffffffffffffffffffffffffffffffff1673ffffffffffffffffffffffffffffffffffffffff168152602001908152602001600020819055508173ffffffffffffffffffffffffffffffffffffffff168373ffffffffffffffffffffffffffffffffffffffff167f8c5be1e5ebec7d5bd14f71427d1e84f3dd0314c0f7b2291e5b200ac8c7c3b92583604051610afb9190610ff9565b60405180910390a3505050565b6000610b1484846106d4565b90507fffffffffffffffffffffffffffffffffffffffffffffffffffffffffffffffff8114610b8e5781811015610b80576040517f08c379a0000000000000000000000000000000000000000000000000000000008152600401610b7790611488565b60405180910390fd5b610b8d848484840361093f565b5b50505050565b600073ffffffffffffffffffffffffffffffffffffffff168373ffffffffffffffffffffffffffffffffffffffff1603610c03576040517f08c379a0000000000000000000000000000000000000000000000000000000008152600401610bfa9061151a565b60405180910390fd5b600073ffffffffffffffffffffffffffffffffffffffff168273ffffffffffffffffffffffffffffffffffffffff1603610c72576040517f08c379a0000000000000000000000000000000000000000000000000000000008152600401610c69906115ac565b60405180910390fd5b610c7d838383610e16565b6000600160008573ffffffffffffffffffffffffffffffffffffffff1673ffffffffffffffffffffffffffffffffffffffff16815260200190815260200160002054905081811015610d04576040517f08c379a0000000000000000000000000000000000000000000000000000000008152600401610cfb9061163e565b60405180910390fd5b818103600160008673ffffffffffffffffffffffffffffffffffffffff1673ffffffffffffffffffffffffffffffffffffffff1681526020019081526020016000208190555081600160008573ffffffffffffffffffffffffffffffffffffffff1673ffffffffffffffffffffffffffffffffffffffff1681526020019081526020016000206000828254610d9991906111c4565b925050819055508273ffffffffffffffffffffffffffffffffffffffff168473ffffffffffffffffffffffffffffffffffffffff167fddf252ad1be2c89b69c2b068fc378daa952ba7f163c4a11628f55a4df523b3ef84604051610dfd9190610ff9565b60405180910390a3610e10848484610e1b565b50505050565b505050565b505050565b600081519050919050565b600082825260208201905092915050565b60005b83811015610e5a578082015181840152602081019050610e3f565b83811115610e69576000848401525b50505050565b6000601f19601f8301169050919050565b6000610e8b82610e20565b610e958185610e2b565b9350610ea5818560208601610e3c565b610eae81610e6f565b840191505092915050565b60006020820190508181036000830152610ed38184610e80565b905092915050565b600080fd5b600073ffffffffffffffffffffffffffffffffffffffff82169050919050565b6000610f0b82610ee0565b9050919050565b610f1b81610f00565b8114610f2657600080fd5b50565b600081359050610f3881610f12565b92915050565b6000819050919050565b610f5181610f3e565b8114610f5c57600080fd5b50565b600081359050610f6e81610f48565b92915050565b60008060408385031215610f8b57610f8a610edb565b5b6000610f9985828601610f29565b9250506020610faa85828601610f5f565b9150509250929050565b60008115159050919050565b610fc981610fb4565b82525050565b6000602082019050610fe46000830184610fc0565b92915050565b610ff381610f3e565b82525050565b600060208201905061100e6000830184610fea565b92915050565b60008060006060848603121561102d5761102c610edb565b5b600061103b86828701610f29565b935050602061104c86828701610f29565b925050604061105d86828701610f5f565b9150509250925092565b600060ff82169050919050565b61107d81611067565b82525050565b60006020820190506110986000830184611074565b92915050565b6000602082840312156110b4576110b3610edb565b5b60006110c284828501610f29565b91505092915050565b6110d481610f00565b82525050565b60006020820190506110ef60008301846110cb565b92915050565b6000806040838503121561110c5761110b610edb565b5b600061111a85828601610f29565b925050602061112b85828601610f29565b9150509250929050565b7f4e487b7100000000000000000000000000000000000000000000000000000000600052602260045260246000fd5b6000600282049050600182168061117c57607f821691505b60208210810361118f5761118e611135565b5b50919050565b7f4e487b7100000000000000000000000000000000000000000000000000000000600052601160045260246000fd5b60006111cf82610f3e565b91506111da83610f3e565b9250827fffffffffffffffffffffffffffffffffffffffffffffffffffffffffffffffff0382111561120f5761120e611195565b5b828201905092915050565b7f45524332303a2064656372656173656420616c6c6f77616e63652062656c6f7760008201527f207a65726f000000000000000000000000000000000000000000000000000000602082015250565b6000611276602583610e2b565b91506112818261121a565b604082019050919050565b600060208201905081810360008301526112a581611269565b9050919050565b7f4f776e657248656c7065723a2063616c6c6572206973206e6f74206f776e6572600082015250565b60006112e2602083610e2b565b91506112ed826112ac565b602082019050919050565b60006020820190508181036000830152611311816112d5565b9050919050565b7f45524332303a20617070726f76652066726f6d20746865207a65726f2061646460008201527f7265737300000000000000000000000000000000000000000000000000000000602082015250565b6000611374602483610e2b565b915061137f82611318565b604082019050919050565b600060208201905081810360008301526113a381611367565b9050919050565b7f45524332303a20617070726f766520746f20746865207a65726f20616464726560008201527f7373000000000000000000000000000000000000000000000000000000000000602082015250565b6000611406602283610e2b565b9150611411826113aa565b604082019050919050565b60006020820190508181036000830152611435816113f9565b9050919050565b7f45524332303a20696e73756666696369656e7420616c6c6f77616e6365000000600082015250565b6000611472601d83610e2b565b915061147d8261143c565b602082019050919050565b600060208201905081810360008301526114a181611465565b9050919050565b7f45524332303a207472616e736665722066726f6d20746865207a65726f20616460008201527f6472657373000000000000000000000000000000000000000000000000000000602082015250565b6000611504602583610e2b565b915061150f826114a8565b604082019050919050565b60006020820190508181036000830152611533816114f7565b9050919050565b7f45524332303a207472616e7366657220746f20746865207a65726f206164647260008201527f6573730000000000000000000000000000000000000000000000000000000000602082015250565b6000611596602383610e2b565b91506115a18261153a565b604082019050919050565b600060208201905081810360008301526115c581611589565b9050919050565b7f45524332303a207472616e7366657220616d6f756e742065786365656473206260008201527f616c616e63650000000000000000000000000000000000000000000000000000602082015250565b6000611628602683610e2b565b9150611633826115cc565b604082019050919050565b600060208201905081810360008301526116578161161b565b905091905056fea2646970667358221220ef6e28437290daba018e5563460578ecec66726a870dfe25668a0ca883e73b6564736f6c634300080d0033",
  "immutableReferences": {},
  "source": "// SPDX-License-Identifier: MIT\npragma solidity ^0.8.10;\n\ninterface InterERC20 {\n    function totalSupply() external view returns (uint256);\n    function balanceOf(address account) external view returns (uint256);\n    function transfer(address to, uint256 amount) external returns (bool);\n    function allowance(address owner, address spender) external view returns (uint256);\n    function approve(address spender, uint256 amount) external returns (bool);\n    function transferFrom(address from, address to, uint256 amount) external returns (bool);\n    function name() external view returns (string memory);\n    function symbol() external view returns (string memory);\n    function decimals() external view returns (uint8);\n\n    event Transfer(address indexed from, address indexed to, uint256 value);\n    event Approval(address indexed owner, address indexed spender, uint256 value);\n}\n\nabstract contract Context {\n    function _msgSender() internal view virtual returns (address) {\n        return msg.sender;\n    }\n    function _msgData() internal view virtual returns (bytes calldata) {\n        return msg.data;\n    }\n}\n\nabstract contract OwnerHelper {\n  \taddress private _owner;\n\n  \tevent OwnershipTransferred(address indexed preOwner, address indexed nextOwner);\n\n  \tmodifier onlyOwner {\n\t\trequire(msg.sender == _owner, \"OwnerHelper: caller is not owner\");\n\t\t_;\n  \t}\n\n  \tconstructor() {\n\t\t_owner = msg.sender;\n  \t}\n\n  \tfunction owner() public view virtual returns (address) {\n\t\treturn _owner;\n  \t}\n\n  \tfunction transferOwnership(address newOwner) onlyOwner public {\n\t\trequire(newOwner != _owner);\n\t\trequire(newOwner != address(0x0));\n\t\t_owner = newOwner;\n\t\temit OwnershipTransferred(_owner, newOwner);\n  \t}\n}\n\ncontract BlockToken is Context, InterERC20, OwnerHelper {\n    mapping(address => uint256) private _balances;\n    mapping(address => mapping(address => uint256)) private _allowances;\n\n    uint256 private _totalSupply;\n    string private _name;\n    string private _symbol;\n    uint8 public _decimals;\n\n    constructor() {\n        _name = \"Block Token\";\n        _symbol = \"Block\";\n        _decimals = 18;\n        _totalSupply = 100000000 * (10 ^ _decimals);\n        _balances[msg.sender] = _totalSupply;\n    }\n\n    function name() public view virtual override returns (string memory) {\n        return _name;\n    }\n\n    function symbol() public view virtual override returns (string memory) {\n        return _symbol;\n    }\n\n    function decimals() public view virtual override returns (uint8) {\n        return 18;\n    }\n\n    function totalSupply() public view virtual override returns (uint256) {\n        return _totalSupply;\n    }\n\n    function balanceOf(address account) public view virtual override returns (uint256) {\n        return _balances[account];\n    }\n\n    function transfer(address to, uint256 amount) public virtual override returns (bool) {\n        address owner = _msgSender();\n        _transfer(owner, to, amount);\n        return true;\n    }\n\n    function allowance(address owner, address spender) public view virtual override returns (uint256) {\n        return _allowances[owner][spender];\n    }\n\n    function approve(address spender, uint256 amount) public virtual override returns (bool) {\n        address owner = _msgSender();\n        _approve(owner, spender, amount);\n        return true;\n    }\n\n    function transferFrom(address from, address to, uint256 amount) public virtual override returns (bool) {\n        address spender = _msgSender();\n        _spendAllowance(from, spender, amount);\n        _transfer(from, to, amount);\n        return true;\n    }\n\n    function increaseAllowance(address spender, uint256 addedValue) public virtual returns (bool) {\n        address owner = _msgSender();\n        _approve(owner, spender, _allowances[owner][spender] + addedValue);\n        return true;\n    }\n\n    function decreaseAllowance(address spender, uint256 subtractedValue) public virtual returns (bool) {\n        address owner = _msgSender();\n        uint256 currentAllowance = _allowances[owner][spender];\n        require(currentAllowance >= subtractedValue, \"ERC20: decreased allowance below zero\");\n        unchecked {_approve(owner, spender, currentAllowance - subtractedValue);}\n        return true;\n    }\n\n    function _transfer(address from, address to, uint256 amount) internal virtual {\n        require(from != address(0), \"ERC20: transfer from the zero address\");\n        require(to != address(0), \"ERC20: transfer to the zero address\");\n        _beforeTokenTransfer(from, to, amount);\n        uint256 fromBalance = _balances[from];\n        require(fromBalance >= amount, \"ERC20: transfer amount exceeds balance\");\n        unchecked {_balances[from] = fromBalance - amount;}\n        _balances[to] += amount;\n        emit Transfer(from, to, amount);\n        _afterTokenTransfer(from, to, amount);\n    }\n\n    function _mint(address account, uint256 amount) internal virtual {\n        require(account != address(0), \"ERC20: mint to the zero address\");\n        _beforeTokenTransfer(address(0), account, amount);\n        _totalSupply += amount;\n        _balances[account] += amount;\n        emit Transfer(address(0), account, amount);\n        _afterTokenTransfer(address(0), account, amount);\n    }\n\n    function _burn(address account, uint256 amount) internal virtual {\n        require(account != address(0), \"ERC20: burn from the zero address\");\n        _beforeTokenTransfer(account, address(0), amount);\n        uint256 accountBalance = _balances[account];\n        require(accountBalance >= amount, \"ERC20: burn amount exceeds balance\");\n        unchecked {_balances[account] = accountBalance - amount;}\n        _totalSupply -= amount;\n        emit Transfer(account, address(0), amount);\n        _afterTokenTransfer(account, address(0), amount);\n    }\n\n    function _approve(address owner, address spender, uint256 amount) internal virtual {\n        require(owner != address(0), \"ERC20: approve from the zero address\");\n        require(spender != address(0), \"ERC20: approve to the zero address\");\n        _allowances[owner][spender] = amount;\n        emit Approval(owner, spender, amount);\n    }\n\n    function _spendAllowance(address owner, address spender, uint256 amount) internal virtual {\n        uint256 currentAllowance = allowance(owner, spender);\n        if (currentAllowance != type(uint256).max) {\n            require(currentAllowance >= amount, \"ERC20: insufficient allowance\");\n            unchecked {_approve(owner, spender, currentAllowance - amount);}\n        }\n    }\n\n    function _beforeTokenTransfer(address from, address to, uint256 amount) internal virtual {}\n\n    function _afterTokenTransfer(address from, address to, uint256 amount) internal virtual {}\n}\n",
  "sourcePath": "/Users/gidonge/project/beb-03-blockchainer/contract/contracts/BlockToken.sol",
  "compiler": {
    "name": "solc",
    "version": "0.8.13+commit.abaa5c0e.Emscripten.clang"
  },
  "schemaVersion": "3.4.7",
  "updatedAt": "2022-04-27T05:28:08.880Z",
  "networkType": "ethereum",
  "devdoc": {
    "kind": "dev",
    "methods": {},
    "version": 1
  },
  "userdoc": {
    "kind": "user",
    "methods": {},
    "version": 1
  }
}